{
  "contractName": "DefiInsure",
  "abi": [
    {
      "inputs": [],
      "payable": false,
      "stateMutability": "nonpayable",
      "type": "constructor"
    },
    {
      "constant": false,
      "inputs": [
        {
          "name": "user",
          "type": "address"
        }
      ],
      "name": "getCompoundPositions",
      "outputs": [
        {
          "name": "",
          "type": "uint256[7]"
        }
      ],
      "payable": false,
      "stateMutability": "nonpayable",
      "type": "function"
    },
    {
      "constant": false,
      "inputs": [
        {
          "name": "token",
          "type": "address"
        }
      ],
      "name": "getUniswapExchange",
      "outputs": [
        {
          "name": "",
          "type": "address"
        }
      ],
      "payable": false,
      "stateMutability": "nonpayable",
      "type": "function"
    }
  ],
  "bytecode": "0x608060405234801561001057600080fd5b5073ebf1a11532b93a529b5bc942b4baa986479130026000806101000a81548173ffffffffffffffffffffffffffffffffffffffff021916908373ffffffffffffffffffffffffffffffffffffffff160217905550736d7f0754ffeb405d23c51ce938289d4835be3b14600160006101000a81548173ffffffffffffffffffffffffffffffffffffffff021916908373ffffffffffffffffffffffffffffffffffffffff16021790555073d6801a1dffcd0a410336ef88def4320d6df1883e600260006101000a81548173ffffffffffffffffffffffffffffffffffffffff021916908373ffffffffffffffffffffffffffffffffffffffff16021790555073ebe09eb3411d18f4ff8d859e096c533cac5c6b60600360006101000a81548173ffffffffffffffffffffffffffffffffffffffff021916908373ffffffffffffffffffffffffffffffffffffffff160217905550735b281a6dda0b271e91ae35de655ad301c976edb1600460006101000a81548173ffffffffffffffffffffffffffffffffffffffff021916908373ffffffffffffffffffffffffffffffffffffffff1602179055507214f450b8ae7708593f4a46f8fa6e5d50620f96600560006101000a81548173ffffffffffffffffffffffffffffffffffffffff021916908373ffffffffffffffffffffffffffffffffffffffff1602179055507352201ff1720134bbbbb2f6bc97bf3715490ec19b600660006101000a81548173ffffffffffffffffffffffffffffffffffffffff021916908373ffffffffffffffffffffffffffffffffffffffff16021790555073f5d915570bc477f9b8d6c0e980aa81757a3aac36600760006101000a81548173ffffffffffffffffffffffffffffffffffffffff021916908373ffffffffffffffffffffffffffffffffffffffff16021790555073da5b056cfb861282b4b59d29c9b395bcc238d29b600860006101000a81548173ffffffffffffffffffffffffffffffffffffffff021916908373ffffffffffffffffffffffffffffffffffffffff160217905550732448ee2641d78cc42d7ad76498917359d961a783600960006101000a81548173ffffffffffffffffffffffffffffffffffffffff021916908373ffffffffffffffffffffffffffffffffffffffff16021790555073fbf4ad5d61fc56d788a37c11b2d368da5fb0ea05600a60006101000a81548173ffffffffffffffffffffffffffffffffffffffff021916908373ffffffffffffffffffffffffffffffffffffffff1602179055507330c50d14858e3f285405b534bd41e11dd4fecd75600b60006101000a81548173ffffffffffffffffffffffffffffffffffffffff021916908373ffffffffffffffffffffffffffffffffffffffff16021790555073577d296678535e4903d59a4c929b718e1d575e0a600c60006101000a81548173ffffffffffffffffffffffffffffffffffffffff021916908373ffffffffffffffffffffffffffffffffffffffff16021790555073f22e3f33768354c9805d046af3c0926f27741b43600d60006101000a81548173ffffffffffffffffffffffffffffffffffffffff021916908373ffffffffffffffffffffffffffffffffffffffff1602179055506108ae806104c46000396000f3fe608060405234801561001057600080fd5b50600436106100365760003560e01c806346055a8f1461003b578063b8560ab1146100bf575b600080fd5b61007d6004803603602081101561005157600080fd5b81019080803573ffffffffffffffffffffffffffffffffffffffff16906020019092919050505061013f565b604051808273ffffffffffffffffffffffffffffffffffffffff1673ffffffffffffffffffffffffffffffffffffffff16815260200191505060405180910390f35b610101600480360360208110156100d557600080fd5b81019080803573ffffffffffffffffffffffffffffffffffffffff169060200190929190505050610222565b6040518082600760200280838360005b8381101561012c578082015181840152602081019050610111565b5050505090500191505060405180910390f35b6000600760009054906101000a900473ffffffffffffffffffffffffffffffffffffffff1673ffffffffffffffffffffffffffffffffffffffff166306f2bf62836040518263ffffffff1660e01b8152600401808273ffffffffffffffffffffffffffffffffffffffff1673ffffffffffffffffffffffffffffffffffffffff16815260200191505060206040518083038186803b1580156101e057600080fd5b505afa1580156101f4573d6000803e3d6000fd5b505050506040513d602081101561020a57600080fd5b81019080805190602001909291905050509050919050565b61022a610860565b6040518060e001604052806000809054906101000a900473ffffffffffffffffffffffffffffffffffffffff1673ffffffffffffffffffffffffffffffffffffffff16633af9e669856040518263ffffffff1660e01b8152600401808273ffffffffffffffffffffffffffffffffffffffff1673ffffffffffffffffffffffffffffffffffffffff168152602001915050602060405180830381600087803b1580156102d557600080fd5b505af11580156102e9573d6000803e3d6000fd5b505050506040513d60208110156102ff57600080fd5b81019080805190602001909291905050508152602001600160009054906101000a900473ffffffffffffffffffffffffffffffffffffffff1673ffffffffffffffffffffffffffffffffffffffff16633af9e669856040518263ffffffff1660e01b8152600401808273ffffffffffffffffffffffffffffffffffffffff1673ffffffffffffffffffffffffffffffffffffffff168152602001915050602060405180830381600087803b1580156103b657600080fd5b505af11580156103ca573d6000803e3d6000fd5b505050506040513d60208110156103e057600080fd5b81019080805190602001909291905050508152602001600260009054906101000a900473ffffffffffffffffffffffffffffffffffffffff1673ffffffffffffffffffffffffffffffffffffffff16633af9e669856040518263ffffffff1660e01b8152600401808273ffffffffffffffffffffffffffffffffffffffff1673ffffffffffffffffffffffffffffffffffffffff168152602001915050602060405180830381600087803b15801561049757600080fd5b505af11580156104ab573d6000803e3d6000fd5b505050506040513d60208110156104c157600080fd5b81019080805190602001909291905050508152602001600360009054906101000a900473ffffffffffffffffffffffffffffffffffffffff1673ffffffffffffffffffffffffffffffffffffffff16633af9e669856040518263ffffffff1660e01b8152600401808273ffffffffffffffffffffffffffffffffffffffff1673ffffffffffffffffffffffffffffffffffffffff168152602001915050602060405180830381600087803b15801561057857600080fd5b505af115801561058c573d6000803e3d6000fd5b505050506040513d60208110156105a257600080fd5b81019080805190602001909291905050508152602001600460009054906101000a900473ffffffffffffffffffffffffffffffffffffffff1673ffffffffffffffffffffffffffffffffffffffff16633af9e669856040518263ffffffff1660e01b8152600401808273ffffffffffffffffffffffffffffffffffffffff1673ffffffffffffffffffffffffffffffffffffffff168152602001915050602060405180830381600087803b15801561065957600080fd5b505af115801561066d573d6000803e3d6000fd5b505050506040513d602081101561068357600080fd5b81019080805190602001909291905050508152602001600560009054906101000a900473ffffffffffffffffffffffffffffffffffffffff1673ffffffffffffffffffffffffffffffffffffffff16633af9e669856040518263ffffffff1660e01b8152600401808273ffffffffffffffffffffffffffffffffffffffff1673ffffffffffffffffffffffffffffffffffffffff168152602001915050602060405180830381600087803b15801561073a57600080fd5b505af115801561074e573d6000803e3d6000fd5b505050506040513d602081101561076457600080fd5b81019080805190602001909291905050508152602001600660009054906101000a900473ffffffffffffffffffffffffffffffffffffffff1673ffffffffffffffffffffffffffffffffffffffff16633af9e669856040518263ffffffff1660e01b8152600401808273ffffffffffffffffffffffffffffffffffffffff1673ffffffffffffffffffffffffffffffffffffffff168152602001915050602060405180830381600087803b15801561081b57600080fd5b505af115801561082f573d6000803e3d6000fd5b505050506040513d602081101561084557600080fd5b81019080805190602001909291905050508152509050919050565b6040518060e0016040528060079060208202803883398082019150509050509056fea165627a7a72305820b535d9e8b5df03921156606343bb5663a53ff06d2f1062e1ce401ac4d607b7690029",
  "source": "pragma solidity 0.5.8;\r\n\r\ninterface cToken {\r\n  function balanceOfUnderlying(address account) external returns (uint);\r\n}\r\n\r\ninterface UniswapExchange {\r\n  function getEthToTokenInputPrice(uint256 eth_sold) external view returns (uint256 tokens_bought);\r\n  function getTokenToEthInputPrice(uint256 tokens_sold) external view returns (uint256 eth_bought);\r\n}\r\n\r\ninterface UniswapFactory {\r\n  function getExchange(address token) external view returns (address exchange);\r\n}\r\n\r\ninterface ERC20 {\r\n\r\n}\r\n\r\ncontract DefiInsure {\r\n  cToken cBAT;\r\n  cToken cDAI;\r\n  cToken cETH;\r\n  cToken cREP;\r\n  cToken cUSDC;\r\n  cToken cWBTC;\r\n  cToken cZRX;\r\n\r\n  UniswapFactory uniswapFactory;\r\n\r\n  ERC20 bat;\r\n  ERC20 dai;\r\n  ERC20 rep;\r\n  ERC20 usdc;\r\n  ERC20 wbtc;\r\n  ERC20 zrx;\r\n\r\n  constructor() public {\r\n    cBAT = cToken(0xEBf1A11532b93a529b5bC942B4bAA98647913002);\r\n    cDAI = cToken(0x6D7F0754FFeb405d23C51CE938289d4835bE3b14);\r\n    cETH = cToken(0xd6801a1DfFCd0a410336Ef88DeF4320D6DF1883e);\r\n    cREP = cToken(0xEBe09eB3411D18F4FF8D859e096C533CAC5c6B60);\r\n    cUSDC = cToken(0x5B281A6DdA0B271e91ae35DE655Ad301C976edb1);\r\n    cWBTC = cToken(0x0014F450B8Ae7708593F4A46F8fa6E5D50620F96);\r\n    cZRX = cToken(0x52201ff1720134bBbBB2f6BC97Bf3715490EC19B);\r\n\r\n    uniswapFactory = UniswapFactory(0xf5D915570BC477f9B8D6C0E980aA81757A3AaC36);\r\n\r\n    bat = ERC20(0xDA5B056Cfb861282B4b59d29c9B395bcC238D29B);\r\n    dai = ERC20(0x2448eE2641d78CC42D7AD76498917359D961A783);\r\n    rep = ERC20(0xfBf4AD5D61fC56d788a37c11B2d368Da5fb0eA05);\r\n    usdc = ERC20(0x30C50d14858E3f285405b534bD41e11dD4fEcD75);\r\n    wbtc = ERC20(0x577D296678535e4903D59A4C929B718e1D575e0A);\r\n    zrx = ERC20(0xF22e3F33768354c9805d046af3C0926f27741B43);\r\n  }\r\n\r\n  function getCompoundPositions(address user) public returns(uint[7] memory) {\r\n    return [\r\n      cBAT.balanceOfUnderlying(user),\r\n      cDAI.balanceOfUnderlying(user),\r\n      cETH.balanceOfUnderlying(user),\r\n      cREP.balanceOfUnderlying(user),\r\n      cUSDC.balanceOfUnderlying(user),\r\n      cWBTC.balanceOfUnderlying(user),\r\n      cZRX.balanceOfUnderlying(user)\r\n    ];\r\n  }\r\n\r\n  // This will be an internal function\r\n  function getUniswapExchange(address token) public returns(address) {\r\n    return uniswapFactory.getExchange(token);\r\n  }\r\n}",
  "sourcePath": "C:/Users/kaden/Documents/code/defi-insure/contracts/DefiInsure.sol",
  "compiler": {
    "name": "solc",
    "version": "0.5.8+commit.23d335f2.Emscripten.clang"
  },
  "schemaVersion": "3.0.17",
  "updatedAt": "2019-12-06T01:07:47.351Z",
  "networkType": "ethereum",
  "devdoc": {
    "methods": {}
  },
  "userdoc": {
    "methods": {}
  }
}