{
  "contractName": "DefiInsure",
  "abi": [
    {
      "inputs": [],
      "payable": false,
      "stateMutability": "nonpayable",
      "type": "constructor"
    },
    {
      "constant": false,
      "inputs": [
        {
          "name": "user",
          "type": "address"
        }
      ],
      "name": "getCompoundPositions",
      "outputs": [
        {
          "name": "",
          "type": "uint256[7]"
        }
      ],
      "payable": false,
      "stateMutability": "nonpayable",
      "type": "function"
    }
  ],
  "bytecode": "0x608060405234801561001057600080fd5b5073ebf1a11532b93a529b5bc942b4baa986479130026000806101000a81548173ffffffffffffffffffffffffffffffffffffffff021916908373ffffffffffffffffffffffffffffffffffffffff160217905550736d7f0754ffeb405d23c51ce938289d4835be3b14600160006101000a81548173ffffffffffffffffffffffffffffffffffffffff021916908373ffffffffffffffffffffffffffffffffffffffff16021790555073d6801a1dffcd0a410336ef88def4320d6df1883e600260006101000a81548173ffffffffffffffffffffffffffffffffffffffff021916908373ffffffffffffffffffffffffffffffffffffffff16021790555073ebe09eb3411d18f4ff8d859e096c533cac5c6b60600360006101000a81548173ffffffffffffffffffffffffffffffffffffffff021916908373ffffffffffffffffffffffffffffffffffffffff160217905550735b281a6dda0b271e91ae35de655ad301c976edb1600460006101000a81548173ffffffffffffffffffffffffffffffffffffffff021916908373ffffffffffffffffffffffffffffffffffffffff1602179055507214f450b8ae7708593f4a46f8fa6e5d50620f96600560006101000a81548173ffffffffffffffffffffffffffffffffffffffff021916908373ffffffffffffffffffffffffffffffffffffffff1602179055507352201ff1720134bbbbb2f6bc97bf3715490ec19b600660006101000a81548173ffffffffffffffffffffffffffffffffffffffff021916908373ffffffffffffffffffffffffffffffffffffffff16021790555061073c806102716000396000f3fe608060405234801561001057600080fd5b506004361061002b5760003560e01c8063b8560ab114610030575b600080fd5b6100726004803603602081101561004657600080fd5b81019080803573ffffffffffffffffffffffffffffffffffffffff1690602001909291905050506100b0565b6040518082600760200280838360005b8381101561009d578082015181840152602081019050610082565b5050505090500191505060405180910390f35b6100b86106ee565b6040518060e001604052806000809054906101000a900473ffffffffffffffffffffffffffffffffffffffff1673ffffffffffffffffffffffffffffffffffffffff16633af9e669856040518263ffffffff1660e01b8152600401808273ffffffffffffffffffffffffffffffffffffffff1673ffffffffffffffffffffffffffffffffffffffff168152602001915050602060405180830381600087803b15801561016357600080fd5b505af1158015610177573d6000803e3d6000fd5b505050506040513d602081101561018d57600080fd5b81019080805190602001909291905050508152602001600160009054906101000a900473ffffffffffffffffffffffffffffffffffffffff1673ffffffffffffffffffffffffffffffffffffffff16633af9e669856040518263ffffffff1660e01b8152600401808273ffffffffffffffffffffffffffffffffffffffff1673ffffffffffffffffffffffffffffffffffffffff168152602001915050602060405180830381600087803b15801561024457600080fd5b505af1158015610258573d6000803e3d6000fd5b505050506040513d602081101561026e57600080fd5b81019080805190602001909291905050508152602001600260009054906101000a900473ffffffffffffffffffffffffffffffffffffffff1673ffffffffffffffffffffffffffffffffffffffff16633af9e669856040518263ffffffff1660e01b8152600401808273ffffffffffffffffffffffffffffffffffffffff1673ffffffffffffffffffffffffffffffffffffffff168152602001915050602060405180830381600087803b15801561032557600080fd5b505af1158015610339573d6000803e3d6000fd5b505050506040513d602081101561034f57600080fd5b81019080805190602001909291905050508152602001600360009054906101000a900473ffffffffffffffffffffffffffffffffffffffff1673ffffffffffffffffffffffffffffffffffffffff16633af9e669856040518263ffffffff1660e01b8152600401808273ffffffffffffffffffffffffffffffffffffffff1673ffffffffffffffffffffffffffffffffffffffff168152602001915050602060405180830381600087803b15801561040657600080fd5b505af115801561041a573d6000803e3d6000fd5b505050506040513d602081101561043057600080fd5b81019080805190602001909291905050508152602001600460009054906101000a900473ffffffffffffffffffffffffffffffffffffffff1673ffffffffffffffffffffffffffffffffffffffff16633af9e669856040518263ffffffff1660e01b8152600401808273ffffffffffffffffffffffffffffffffffffffff1673ffffffffffffffffffffffffffffffffffffffff168152602001915050602060405180830381600087803b1580156104e757600080fd5b505af11580156104fb573d6000803e3d6000fd5b505050506040513d602081101561051157600080fd5b81019080805190602001909291905050508152602001600560009054906101000a900473ffffffffffffffffffffffffffffffffffffffff1673ffffffffffffffffffffffffffffffffffffffff16633af9e669856040518263ffffffff1660e01b8152600401808273ffffffffffffffffffffffffffffffffffffffff1673ffffffffffffffffffffffffffffffffffffffff168152602001915050602060405180830381600087803b1580156105c857600080fd5b505af11580156105dc573d6000803e3d6000fd5b505050506040513d60208110156105f257600080fd5b81019080805190602001909291905050508152602001600660009054906101000a900473ffffffffffffffffffffffffffffffffffffffff1673ffffffffffffffffffffffffffffffffffffffff16633af9e669856040518263ffffffff1660e01b8152600401808273ffffffffffffffffffffffffffffffffffffffff1673ffffffffffffffffffffffffffffffffffffffff168152602001915050602060405180830381600087803b1580156106a957600080fd5b505af11580156106bd573d6000803e3d6000fd5b505050506040513d60208110156106d357600080fd5b81019080805190602001909291905050508152509050919050565b6040518060e0016040528060079060208202803883398082019150509050509056fea165627a7a723058209317e44d1a9ebacf4620965e3961cc8bc64b38cf6a4cb41e0d88cc2851c07d5c0029",
  "source": "pragma solidity 0.5.8;\r\n\r\ninterface cToken {\r\n  function balanceOfUnderlying(address account) external returns (uint);\r\n}\r\n\r\ncontract DefiInsure {\r\n  cToken cBAT;\r\n  cToken cDAI;\r\n  cToken cETH;\r\n  cToken cREP;\r\n  cToken cUSDC;\r\n  cToken cWBTC;\r\n  cToken cZRX;\r\n\r\n  struct compoundPositions {\r\n    cToken cBat;\r\n    cToken cDAI;\r\n    cToken cETH;\r\n    cToken cREP;\r\n    cToken cUSDC;\r\n    cToken cWBTC;\r\n    cToken cZRX;\r\n  }\r\n\r\n  constructor() public {\r\n    cBAT = cToken(0xEBf1A11532b93a529b5bC942B4bAA98647913002);\r\n    cDAI = cToken(0x6D7F0754FFeb405d23C51CE938289d4835bE3b14);\r\n    cETH = cToken(0xd6801a1DfFCd0a410336Ef88DeF4320D6DF1883e);\r\n    cREP = cToken(0xEBe09eB3411D18F4FF8D859e096C533CAC5c6B60);\r\n    cUSDC= cToken(0x5B281A6DdA0B271e91ae35DE655Ad301C976edb1);\r\n    cWBTC= cToken(0x0014F450B8Ae7708593F4A46F8fa6E5D50620F96);\r\n    cZRX = cToken(0x52201ff1720134bBbBB2f6BC97Bf3715490EC19B);\r\n  }\r\n\r\n  function getCompoundPositions(address user) public returns(uint[7] memory) {\r\n    return [\r\n      cBAT.balanceOfUnderlying(user),\r\n      cDAI.balanceOfUnderlying(user),\r\n      cETH.balanceOfUnderlying(user),\r\n      cREP.balanceOfUnderlying(user),\r\n      cUSDC.balanceOfUnderlying(user),\r\n      cWBTC.balanceOfUnderlying(user),\r\n      cZRX.balanceOfUnderlying(user)\r\n    ];\r\n  }\r\n}",
  "sourcePath": "C:/Users/kaden/Documents/code/defi-insure/contracts/DefiInsure.sol",
  "compiler": {
    "name": "solc",
    "version": "0.5.8+commit.23d335f2.Emscripten.clang"
  },
  "schemaVersion": "3.0.17",
  "updatedAt": "2019-12-05T23:44:37.076Z",
  "networkType": "ethereum",
  "devdoc": {
    "methods": {}
  },
  "userdoc": {
    "methods": {}
  }
}