{
  "contractName": "DefiInsure",
  "abi": [
    {
      "inputs": [],
      "payable": false,
      "stateMutability": "nonpayable",
      "type": "constructor"
    },
    {
      "constant": false,
      "inputs": [
        {
          "name": "user",
          "type": "address"
        }
      ],
      "name": "getCompoundPositions",
      "outputs": [
        {
          "name": "",
          "type": "uint256[7]"
        }
      ],
      "payable": false,
      "stateMutability": "nonpayable",
      "type": "function"
    },
    {
      "constant": true,
      "inputs": [
        {
          "name": "amount",
          "type": "uint256"
        },
        {
          "name": "token",
          "type": "address"
        }
      ],
      "name": "valueInDai",
      "outputs": [
        {
          "name": "",
          "type": "uint256"
        }
      ],
      "payable": false,
      "stateMutability": "view",
      "type": "function"
    }
  ],
  "bytecode": "0x608060405234801561001057600080fd5b50736c8c6b02e7b2be14d4fa6022dfd6d75921d90e4e6000806101000a81548173ffffffffffffffffffffffffffffffffffffffff021916908373ffffffffffffffffffffffffffffffffffffffff160217905550735d3a536e4d6dbd6114cc1ead35777bab948e3643600160006101000a81548173ffffffffffffffffffffffffffffffffffffffff021916908373ffffffffffffffffffffffffffffffffffffffff160217905550734ddc2d193948926d02f9b1fe9e1daa0718270ed5600260006101000a81548173ffffffffffffffffffffffffffffffffffffffff021916908373ffffffffffffffffffffffffffffffffffffffff16021790555073158079ee67fce2f58472a96584a73c7ab9ac95c1600360006101000a81548173ffffffffffffffffffffffffffffffffffffffff021916908373ffffffffffffffffffffffffffffffffffffffff1602179055507339aa39c021dfbae8fac545936693ac917d5e7563600460006101000a81548173ffffffffffffffffffffffffffffffffffffffff021916908373ffffffffffffffffffffffffffffffffffffffff16021790555073c11b1268c1a384e55c48c2391d8d480264a3a7f4600560006101000a81548173ffffffffffffffffffffffffffffffffffffffff021916908373ffffffffffffffffffffffffffffffffffffffff16021790555073b3319f5d18bc0d84dd1b4825dcde5d5f7266d407600660006101000a81548173ffffffffffffffffffffffffffffffffffffffff021916908373ffffffffffffffffffffffffffffffffffffffff16021790555073c0a47dfe034b400b47bdad5fecda2621de6c4d95600760006101000a81548173ffffffffffffffffffffffffffffffffffffffff021916908373ffffffffffffffffffffffffffffffffffffffff160217905550730d8775f648430679a709e98d2b0cb6250d2887ef600860006101000a81548173ffffffffffffffffffffffffffffffffffffffff021916908373ffffffffffffffffffffffffffffffffffffffff1602179055507389d24a6b4ccb1b6faa2625fe562bdd9a23260359600960006101000a81548173ffffffffffffffffffffffffffffffffffffffff021916908373ffffffffffffffffffffffffffffffffffffffff160217905550731985365e9f78359a9b6ad760e32412f4a445e862600a60006101000a81548173ffffffffffffffffffffffffffffffffffffffff021916908373ffffffffffffffffffffffffffffffffffffffff16021790555073a0b86991c6218b36c1d19d4a2e9eb0ce3606eb48600b60006101000a81548173ffffffffffffffffffffffffffffffffffffffff021916908373ffffffffffffffffffffffffffffffffffffffff160217905550732260fac5e5542a773aa44fbcfedf7c193bc2c599600c60006101000a81548173ffffffffffffffffffffffffffffffffffffffff021916908373ffffffffffffffffffffffffffffffffffffffff16021790555073e41d2489571d322189246dafa5ebde1f4699f498600d60006101000a81548173ffffffffffffffffffffffffffffffffffffffff021916908373ffffffffffffffffffffffffffffffffffffffff1602179055506109e2806104c56000396000f3fe608060405234801561001057600080fd5b50600436106100365760003560e01c8063b8560ab11461003b578063e6561971146100bb575b600080fd5b61007d6004803603602081101561005157600080fd5b81019080803573ffffffffffffffffffffffffffffffffffffffff16906020019092919050505061011d565b6040518082600760200280838360005b838110156100a857808201518184015260208101905061008d565b5050505090500191505060405180910390f35b610107600480360360408110156100d157600080fd5b8101908080359060200190929190803573ffffffffffffffffffffffffffffffffffffffff16906020019092919050505061075b565b6040518082815260200191505060405180910390f35b610125610994565b6040518060e001604052806000809054906101000a900473ffffffffffffffffffffffffffffffffffffffff1673ffffffffffffffffffffffffffffffffffffffff16633af9e669856040518263ffffffff1660e01b8152600401808273ffffffffffffffffffffffffffffffffffffffff1673ffffffffffffffffffffffffffffffffffffffff168152602001915050602060405180830381600087803b1580156101d057600080fd5b505af11580156101e4573d6000803e3d6000fd5b505050506040513d60208110156101fa57600080fd5b81019080805190602001909291905050508152602001600160009054906101000a900473ffffffffffffffffffffffffffffffffffffffff1673ffffffffffffffffffffffffffffffffffffffff16633af9e669856040518263ffffffff1660e01b8152600401808273ffffffffffffffffffffffffffffffffffffffff1673ffffffffffffffffffffffffffffffffffffffff168152602001915050602060405180830381600087803b1580156102b157600080fd5b505af11580156102c5573d6000803e3d6000fd5b505050506040513d60208110156102db57600080fd5b81019080805190602001909291905050508152602001600260009054906101000a900473ffffffffffffffffffffffffffffffffffffffff1673ffffffffffffffffffffffffffffffffffffffff16633af9e669856040518263ffffffff1660e01b8152600401808273ffffffffffffffffffffffffffffffffffffffff1673ffffffffffffffffffffffffffffffffffffffff168152602001915050602060405180830381600087803b15801561039257600080fd5b505af11580156103a6573d6000803e3d6000fd5b505050506040513d60208110156103bc57600080fd5b81019080805190602001909291905050508152602001600360009054906101000a900473ffffffffffffffffffffffffffffffffffffffff1673ffffffffffffffffffffffffffffffffffffffff16633af9e669856040518263ffffffff1660e01b8152600401808273ffffffffffffffffffffffffffffffffffffffff1673ffffffffffffffffffffffffffffffffffffffff168152602001915050602060405180830381600087803b15801561047357600080fd5b505af1158015610487573d6000803e3d6000fd5b505050506040513d602081101561049d57600080fd5b81019080805190602001909291905050508152602001600460009054906101000a900473ffffffffffffffffffffffffffffffffffffffff1673ffffffffffffffffffffffffffffffffffffffff16633af9e669856040518263ffffffff1660e01b8152600401808273ffffffffffffffffffffffffffffffffffffffff1673ffffffffffffffffffffffffffffffffffffffff168152602001915050602060405180830381600087803b15801561055457600080fd5b505af1158015610568573d6000803e3d6000fd5b505050506040513d602081101561057e57600080fd5b81019080805190602001909291905050508152602001600560009054906101000a900473ffffffffffffffffffffffffffffffffffffffff1673ffffffffffffffffffffffffffffffffffffffff16633af9e669856040518263ffffffff1660e01b8152600401808273ffffffffffffffffffffffffffffffffffffffff1673ffffffffffffffffffffffffffffffffffffffff168152602001915050602060405180830381600087803b15801561063557600080fd5b505af1158015610649573d6000803e3d6000fd5b505050506040513d602081101561065f57600080fd5b81019080805190602001909291905050508152602001600660009054906101000a900473ffffffffffffffffffffffffffffffffffffffff1673ffffffffffffffffffffffffffffffffffffffff16633af9e669856040518263ffffffff1660e01b8152600401808273ffffffffffffffffffffffffffffffffffffffff1673ffffffffffffffffffffffffffffffffffffffff168152602001915050602060405180830381600087803b15801561071657600080fd5b505af115801561072a573d6000803e3d6000fd5b505050506040513d602081101561074057600080fd5b81019080805190602001909291905050508152509050919050565b600080610767836108b1565b905060006107887389d24a6b4ccb1b6faa2625fe562bdd9a232603596108b1565b905060008273ffffffffffffffffffffffffffffffffffffffff166395b68fe7876040518263ffffffff1660e01b81526004018082815260200191505060206040518083038186803b1580156107dd57600080fd5b505afa1580156107f1573d6000803e3d6000fd5b505050506040513d602081101561080757600080fd5b810190808051906020019092919050505090508173ffffffffffffffffffffffffffffffffffffffff1663cd7724c3826040518263ffffffff1660e01b81526004018082815260200191505060206040518083038186803b15801561086b57600080fd5b505afa15801561087f573d6000803e3d6000fd5b505050506040513d602081101561089557600080fd5b8101908080519060200190929190505050935050505092915050565b6000600760009054906101000a900473ffffffffffffffffffffffffffffffffffffffff1673ffffffffffffffffffffffffffffffffffffffff166306f2bf62836040518263ffffffff1660e01b8152600401808273ffffffffffffffffffffffffffffffffffffffff1673ffffffffffffffffffffffffffffffffffffffff16815260200191505060206040518083038186803b15801561095257600080fd5b505afa158015610966573d6000803e3d6000fd5b505050506040513d602081101561097c57600080fd5b81019080805190602001909291905050509050919050565b6040518060e0016040528060079060208202803883398082019150509050509056fea165627a7a72305820891372eded16480b0700488e8372373172063854c1254306e2a807bb9959e5c80029",
  "source": "pragma solidity 0.5.8;\r\n\r\ninterface cToken {\r\n  function balanceOfUnderlying(address account) external returns (uint);\r\n}\r\n\r\ninterface UniswapExchange {\r\n  function getEthToTokenInputPrice(uint256 eth_sold) external view returns (uint256 tokens_bought);\r\n  function getTokenToEthInputPrice(uint256 tokens_sold) external view returns (uint256 eth_bought);\r\n}\r\n\r\ninterface UniswapFactory {\r\n  function getExchange(address token) external view returns (address exchange);\r\n}\r\n\r\ninterface ERC20 {\r\n\r\n}\r\n\r\ncontract DefiInsure {\r\n  cToken cBAT;\r\n  cToken cDAI;\r\n  cToken cETH;\r\n  cToken cREP;\r\n  cToken cUSDC;\r\n  cToken cWBTC;\r\n  cToken cZRX;\r\n\r\n  UniswapFactory uniswapFactory;\r\n\r\n  ERC20 bat;\r\n  ERC20 dai;\r\n  ERC20 rep;\r\n  ERC20 usdc;\r\n  ERC20 wbtc;\r\n  ERC20 zrx;\r\n\r\n  constructor() public {\r\n    cBAT = cToken(0x6C8c6b02E7b2BE14d4fA6022Dfd6d75921D90E4E);\r\n    cDAI = cToken(0x5d3a536E4D6DbD6114cc1Ead35777bAB948E3643);\r\n    cETH = cToken(0x4Ddc2D193948926D02f9B1fE9e1daa0718270ED5);\r\n    cREP = cToken(0x158079Ee67Fce2f58472A96584A73C7Ab9AC95c1);\r\n    cUSDC = cToken(0x39AA39c021dfbaE8faC545936693aC917d5E7563);\r\n    cWBTC = cToken(0xC11b1268C1A384e55C48c2391d8d480264A3A7F4);\r\n    cZRX = cToken(0xB3319f5D18Bc0D84dD1b4825Dcde5d5f7266d407);\r\n\r\n    uniswapFactory = UniswapFactory(0xc0a47dFe034B400B47bDaD5FecDa2621de6c4d95);\r\n\r\n    bat = ERC20(0x0D8775F648430679A709E98d2b0Cb6250d2887EF);\r\n    dai = ERC20(0x89d24A6b4CcB1B6fAA2625fE562bDD9a23260359); // really sai\r\n    rep = ERC20(0x1985365e9f78359a9B6AD760e32412f4a445E862);\r\n    usdc = ERC20(0xA0b86991c6218b36c1d19D4a2e9Eb0cE3606eB48);\r\n    wbtc = ERC20(0x2260FAC5E5542a773Aa44fBCfeDf7C193bc2C599);\r\n    zrx = ERC20(0xE41d2489571d322189246DaFA5ebDe1F4699F498);\r\n  }\r\n\r\n  function getCompoundPositions(address user) public returns(uint[7] memory) {\r\n    return [\r\n      cBAT.balanceOfUnderlying(user),\r\n      cDAI.balanceOfUnderlying(user),\r\n      cETH.balanceOfUnderlying(user),\r\n      cREP.balanceOfUnderlying(user),\r\n      cUSDC.balanceOfUnderlying(user),\r\n      cWBTC.balanceOfUnderlying(user),\r\n      cZRX.balanceOfUnderlying(user)\r\n    ];\r\n  }\r\n\r\n  function valueInDai(uint amount, address token) view public returns(uint) {\r\n    UniswapExchange tokenExchange = UniswapExchange(getUniswapExchange(token));\r\n    UniswapExchange daiExchange = UniswapExchange(getUniswapExchange(0x89d24A6b4CcB1B6fAA2625fE562bDD9a23260359)); // dai address\r\n\r\n    uint valueInEth = tokenExchange.getTokenToEthInputPrice(amount);\r\n    return daiExchange.getEthToTokenInputPrice(valueInEth);\r\n  }\r\n\r\n  function getUniswapExchange(address token) view internal returns(address) {\r\n    return uniswapFactory.getExchange(token);\r\n  }\r\n}",
  "sourcePath": "C:/Users/kaden/Documents/code/defi-insure/contracts/DefiInsure.sol",
  "compiler": {
    "name": "solc",
    "version": "0.5.8+commit.23d335f2.Emscripten.clang"
  },
  "schemaVersion": "3.0.17",
  "updatedAt": "2019-12-07T01:13:18.768Z",
  "networkType": "ethereum",
  "devdoc": {
    "methods": {}
  },
  "userdoc": {
    "methods": {}
  }
}